S00B00004C43442E7372656346
S113000045C0000058C0000056C0000054C00000A5
S113001052C0000050C000004EC000004CC00000A0
S11300204AC0000048C0000046C0000044C00000B0
S113003042C0000040C000003EC000003CC00000C0
S11300403AC0000038C0000036C0000034C00000D0
S113005032C0000030C000002EC000002CC00000E0
S11300602AC0000028C0000026C0000024C00000F0
S113007022C0000020C000001EC000001CC0000000
S11300801AC0000018C0000016C0000011241FBED2
S1130090CFEFD0E1DEBFCDBF11E0A0E0B1E0E6EFED
S11300A0F2E000E00BBF02C007900D92A630B1074A
S11300B0D9F702D01EC1A4CF8FEF8ABB82E0809310
S11300C0610080936200EED017B886E886B9369A4C
S11300D0349BFECF04B115B160E080E0D3D080E062
S11300E091E0C2D098013695279536952795369597
S11300F02795A5ECB0E2EED0AC01529542954F7035
S113010045275F7045279A01ADECBCECE3D096958A
S1130110879596958795969587959C01220F331F11
S1130120880F991F880F991F880F991F820F931F9B
S11301309A01281B390BC901805D90D0980136952E
S1130140279536952795ABE7B4E1C4D0AC01569515
S113015047959A01ADECBCECBDD0969587959695E4
S11301608795969587959C01220F331F880F991FB9
S1130170880F991F880F991F820F931F9A01281BBC
S1130180390BC901805D6AD09801ADECBCECA2D0FA
S1130190EC01D695C795D695C795D695C7959E017A
S11301A099D09695879596958795969587959C0170
S11301B0220F331F880F991F880F991F880F991FCB
S11301C0820F931F9E01281B390BC901805D46D005
S11301D0CE01880F991FCC0FDD1FCC0FDD1FCC0F74
S11301E0DD1FC80FD91FC8018C1B9D0B805D36D045
S11301F03FEF8FE39BE0315080409040E1F700C037
S1130200000065CFD898D998982F907F94609BBBB5
S11302102BE72A95F1F7DA98D898D99820E1829FAC
S1130220C001112484608BBB8BE78A95F1F7DA98BF
S11302300895D998982F907F95609BBB2BE72A95BA
S1130240F1F7DA98D99820E1829FC00111248560E2
S11302508BBB8BE78A95F1F7DA980895EADF83E39D
S113026097E00197F1F70895CF93DF93EC0188812C
S1130270882329F02196F2DF89918111FCCFDF9147
S1130280CF91089590E4899F600D1124862F806892
S1130290B9CF089581E0B6DF86E69EE00197F1F7D5
S11302A00000089582E0AEDF86E69EE00197F1F754
S11302B0000088E2A7DF9BE59A95F1F78CE0A2DFC6
S11302C08BE58A95F1F786E09DDF9BE59A95F1F73A
S11302D0E1CF0895A29FB001B39FC001A39F700D09
S11302E0811D1124911DB29F700D811D1124911D3A
S10902F00895F894FFCF0D
S10902F64364733A20008A
S9030000FC
