S00C00006578616D2E737265636D
S113000045C00000C2C200005EC000005CC0000029
S11300105AC0000058C0000056C0000054C0000080
S113002052C0000050C000004EC000004CC0000090
S11300304AC0000048C0000046C0000044C00000A0
S113004042C0000040C000003EC000003CC00000B0
S11300503AC0000038C0000036C0000034C00000C0
S113006032C0000030C000002EC000002CC00000D0
S11300702AC0000028C0000026C0000024C00000E0
S113008022C0000020C000001EC0000011241FBEBA
S1130090CFEFD0E1DEBFCDBF12E0A0E0B1E0E8EFEA
S11300A0FBE000E00BBF02C007900D92AE33B10736
S11300B0D9F722E0AEE3B2E001C01D92A034B2074A
S11300C0E1F723D297C59CCF5D9BFECF8CB95D9A97
S11300D008955F9BFECF8CB15F9A0895CF93C0E0E3
S11300E0EC2FF0E0EE5EFE4F8081882319F0CF5FA5
S11300F0EBDFF6CFCF9108951F93CF93DF93CDB766
S1130100DEB7C354D1090FB6F894DEBF0FBECDBF1E
S113011082E2E2E7F1E0DE01119601900D928A9508
S1130120E1F781E2E4E9F1E0DE01939601900D92BA
S11301308A95E1F710E0E1E0F0E0EC0FFD1FE10F3C
S1130140F11D80818823C1F01F5FBEDFF4CF27E05B
S113015030E081E040913E0250913F024130510530
S113016069F51BBA28E030E040913E0250913F020D
S11301704130510599F51BBA80913E0290913F029E
S1130180019729F710923F0210923E0210E0E3E239
S1130190F0E0EC0FFD1FE10FF11D8081882319F0C1
S11301A01F5F92DFF4CFCD5BDF4F0FB6F894DEBF55
S11301B00FBECDBFDF91CF911F9190CF8BBB880F26
S11301C04FEF5FE39BE0415050409040E1F700C0A7
S11301D000002150310909F0BDCFC4CF8BBB8695F7
S11301E04FEF5FE39BE0415050409040E1F700C087
S11301F000002150310909F0B7CFBECFEF92FF9232
S11302000F931F93CF93DF93CDB7DEB7CC55D109AE
S11302100FB6F894DEBF0FBECDBF8CE2E5EBF1E084
S1130220DE01D19601900D928A95E1F780E3E1EE2B
S1130230F1E0DE01119601900D928A95E1F710E04C
S1130240E1E3F0E0EC0FFD1FE10FF11D8081882355
S113025019F01F5F39DFF4CF10E300E980ECF82ECA
S113026090E6E92E80913E0290913F02019701F5BC
S113027010923F0210923E0218BA10E0E1E0F0E062
S1130280EC0FFD1FE10FF11D8081882319F01F5F22
S11302901BDFF4CFC45ADF4F0FB6F894DEBF0FBE96
S11302A0CDBFDF91CF911F910F91FF90EF9016CFAB
S11302B010DF863631F0823761F1883799F610E025
S11302C051C08CE090E020913E0230913F022130F9
S11302D0310541F218BBEFEFF7E43197F1F700C0B5
S11302E0000008BBEFEFF7E43197F1F700C000001E
S11302F0F8BAEFEFF7E43197F1F700C00000E8BA7D
S1130300EFEFF7E43197F1F700C000000197D9F659
S1130310A9CF8CE090E020913E0230913F02213041
S1130320310509F49FCFE8BAEFEFF7E43197F1F71D
S113033000C00000F8BAEFEFF7E43197F1F700C01E
S1130340000008BBEFEFF7E43197F1F700C00000BD
S113035018BBEFEFF7E43197F1F700C00000019705
S1130360D1F680CFE1E0F0E0EC0FFD1FE10FF11DCD
S11303708081882309F48ECF1F5FA6DEF3CFCF924E
S1130380DF92EF92FF920F931F93CF93DF93CDB73A
S1130390DEB7C354D1400FB6F894DEBF0FBECDBF55
S11303A082E2EBE1F2E0DE01AE5DBE4F01900D9220
S11303B08A95E1F782E2EBE1F2E0DE01B395019088
S11303C00D928A95E1F710E0E2E2F1E0EC0FFD1FF7
S11303D0E10FF11D8081882319F01F5F75DEF4CFD2
S11303E001E112E0CE0101967C0180913E029091E0
S11303F03F020197F1F410923F0210923E028E01E7
S11304001395F80181918F01882311F05DDEF9CFF6
S113041065DECD5BDE4F0FB6F894DEBF0FBECDBFF9
S1130420DF91CF911F910F91FF90EF90DF90CF90CC
S11304300895369A349BFECF84B195B199279F9342
S11304408F931F930F93FF92EF92F9D067010F9050
S11304500F900F900F900F900F90F60181916F0104
S1130460882311F031DEF9CFFFEF2FE38BE0F15059
S113047020408040E1F700C00000B7CF803391F006
S1130480813391F1823391F1833391F1843391F18A
S1130490853391F1863391F1873391F1883391F16A
S11304A0882391F1E0E0F0E0EE0FFF1FE050FF4FF2
S11304B02081318140E050E060E070E488E390E026
S11304C080D0309381002093800080E480938B005F
S11304D02FEF8FE39BE0215080409040E1F700C074
S11304E0000010928B000895E1E0DDCFE2E0DBCF65
S11304F0E3E0D9CFE4E0D7CFE5E0D5CFE6E0D3CF52
S1130500E7E0D1CFE8E0CFCF08958FEF8ABB80EF4B
S113051087BB82E0809361008093620088E082B9A7
S113052011BA1BB888E18AB986E0809395001092CD
S1130530900093E099B917B886E886B910928B00B9
S113054089E180938A0010928C00109289001092A5
S1130550880081E089BF90936A0088BF7894BEDDEB
S1130560B8DD982F9F7D9C3411F4C6DDF9CF933408
S113057011F405DFF5CF20ED280F293010F47EDFCC
S1130580EFCF933569F73ADEEBCF1F920F920FB698
S11305900F9211248F939F93F89480913E0290912F
S11305A03F02892B31F481E090E090933F028093E5
S11305B03E0278949F918F910F900FBE0F901F90E1
S11305C01895052E97FB16F400940FD057FD05D00F
S11305D014D007FC02D046F408C0509540953095DD
S11305E021953F4F4F4F5F4F08959095809570959B
S11305F061957F4F8F4F9F4F0895A1E21A2EAA1B3A
S1130600BB1BFD010DC0AA1FBB1FEE1FFF1FA217BE
S1130610B307E407F50720F0A21BB30BE40BF50BBB
S1130620661F771F881F991F1A9469F76095709544
S1130630809590959B01AC01BD01CF0108950F9366
S11306401F93CF93DF93CDB7DEB72E970FB6F894F1
S1130650DEBF0FBECDBF0D891E8986E08C831A8351
S113066009838FEF9FE79E838D83AE01475E5F4FC3
S11306706F89788DCE01019610D0EF81F885E00F57
S1130680F11F10822E960FB6F894DEBF0FBECDBFB9
S1130690DF91CF911F910F9108952F923F924F9226
S11306A05F926F927F928F929F92AF92BF92CF92FE
S11306B0DF92EF92FF920F931F93CF93DF93CDB707
S11306C0DEB72B970FB6F894DEBF0FBECDBF6C011B
S11306D07B018A01FC0117821682838181FFBFC1DD
S11306E0CE0101963C01F6019381F70193FD8591BA
S11306F093FF81917F01882309F4ADC1853239F4D8
S113070093FD859193FF81917F01853221F4B60198
S113071090E0D6D1E8CF912C212C312CFFE1F315B8
S1130720D8F08B3279F038F4803279F08332A1F446
S1130730232D20611DC08D3261F0803369F4232D97
S1130740216016C0832D8260382EE32DE4603E2E96
S11307502AC0F32DF8601DC037FC2DC020ED280FF2
S11307602A3040F08E32B9F436FC75C1232D206452
S1130770322E19C036FE06C08AE0989E200D112440
S1130780922E11C0EAE02E9E200D1124222EF32D6C
S1130790F0623F2E08C08C3621F4832D8068382EF9
S11307A002C0883641F4F70193FD859193FF81914E
S11307B07F018111B3CF982F9F7D9554933028F4F6
S11307C00C5F1F4F9FE399830DC0833631F083374D
S11307D071F0833509F055C020C0F8018081898308
S11307E00E5F1F4F88248394912C530112C028015B
S11307F0F2E04F0E511CF801A080B18036FE03C018
S1130800692D70E002C06FEF7FEFC5014ED14C013E
S11308108201F32DFF773F2E15C0280122E0420EFE
S1130820511CF801A080B18036FE03C0692D70E030
S113083002C06FEF7FEFC5012DD14C01F32DF0689D
S11308403F2E820133FC19C0822D90E08816990650
S1130850A0F4B60180E290E033D12A94F5CFF501FB
S113086037FC859137FE81915F01B60190E028D174
S113087021102A9421E0821A91088114910479F7B5
S1130880E1C0843611F0893639F5F80137FE07C026
S113089060817181828193810C5F1F4F08C06081E8
S11308A07181072E000C880B990B0E5F1F4FF32DDF
S11308B0FF763F2E97FF09C09095809570956195BE
S11308C07F4F8F4F9F4FF0683F2E2AE030E0A30107
S11308D033D1882E861844C0853731F4232D2F7EDA
S11308E0B22E2AE030E025C0932D997FB92E8F36A1
S11308F0C1F018F4883579F0AEC0803719F0883724
S113090021F0A9C0E92FE061BE2EB4FE0DC0FB2D7D
S1130910F460BF2E09C034FE0AC0292F2660B22E0F
S113092006C028E030E005C020E130E002C020E14C
S113093032E0F801B7FE07C0608171818281938142
S11309400C5F1F4F06C06081718180E090E00E5FF4
S11309501F4FA301F1D0882E8618FB2DFF773F2E61
S113096036FE0DC0232D2E7FA22E891458F434FE9A
S11309700BC032FC09C0832D8E7EA82E05C0B82C76
S1130980A32C03C0B82C01C0B92CA4FE0FC0FE01D7
S1130990E80DF11D8081803321F49A2D997EA92ED2
S11309A009C0A2FE06C0B394B39404C08A2D86780D
S11309B009F0B394A3FC10C0A0FE06C0B21480F4E6
S11309C0280C922C9B180DC0B21458F4B60180E286
S11309D090E076D0B394F8CFB21418F42B1802C078
S11309E0982C212CA4FE0FC0B60180E390E068D0BF
S11309F0A2FE16C0A1FC03C088E790E002C088E50F
S1130A0090E0B6010CC08A2D867851F0A1FE02C098
S1130A108BE201C080E2A7FC8DE2B60190E050D0E9
S1130A20891430F4B60180E390E04AD09A94F8CF68
S1130A308A94F301E80DF11D8081B60190E040D065
S1130A408110F6CF222009F44ECEB60180E290E068
S1130A5037D02A94F7CFF6018681978102C08FEFB1
S1130A609FEF2B960FB6F894DEBF0FBECDBFDF917C
S1130A70CF911F910F91FF90EF90DF90CF90BF9097
S1130A80AF909F908F907F906F905F904F903F902A
S1130A902F900895FC010590615070400110D8F723
S1130AA0809590958E0F9F1F0895FC0161507040B2
S1130AB001900110D8F7809590958E0F9F1F08958F
S1130AC00F931F93CF93DF93FB01238121FD03C079
S1130AD08FEF9FEF2CC022FF16C0468157812481DF
S1130AE035814217530744F4A081B1819D012F5FE2
S1130AF03F4F318320838C93268137812F5F3F4F73
S1130B003783268314C08B01EC01FB010084F1853B
S1130B10E02D0995892BE1F6D80116968D919C91CB
S1130B201797019617969C938E931697CE01DF9193
S1130B30CF911F910F910895FA01AA27283051F1FE
S1130B40203181F1E8946F936E7F6E5F7F4F8F4FFA
S1130B509F4FAF4FB1E03ED0B4E03CD0670F781F59
S1130B60891F9A1FA11D680F791F8A1F911DA11D3E
S1130B706A0F711D811D911DA11D20D009F4689477
S1130B803F912AE0269F11243019305D3193DEF61F
S1130B90CF010895462F4770405D4193B3E00FD0D5
S1130BA0C9F7F6CF462F4F70405D4A3318F0495DC0
S1130BB031FD4052419302D0A9F7EACFB4E0A695A3
S1130BC09795879577956795BA95C9F700976105C5
S1130BD0710508959B01AC010A2E0694579547951B
S1130BE037952795BA95C9F7620F731F841F951F10
S10B0BF0A01D0895F894FFCF45
S1130BF86E14EE16BE19441B961E60228E26DC283F
S1130C082A2B0D0A09202B2B2B2B204D656E7520C2
S1130C182B2B2B2B200A204C203A204C4544200A0D
S1130C282043203A20434453200A2030207E203792
S1130C38203A205049414E4F200A2053203A20534D
S1130C48544550204D4F544F52200A2070757368F4
S1130C5820627574746F6E203A2073746F70200A62
S1130C680A002A2A2A2A2A2A2A2A2A2A2A4C4544CB
S1130C7820506C61792A2A2A2A2A2A2A2A2A2A2AE4
S1130C882A0A0A002A2A2A2A2A2A2A2A2A2A2A4C00
S1130C984544204F66662A2A2A2A2A2A2A2A2A2AE0
S1130CA82A2A0A0A0053746570204D6F746F7220E3
S1130CB852756E284357203A20662C204343572008
S1130CC83A20722C2051756974203A2078290A0A2E
S1130CD8002A2A2A2A2A2A2A2A2A2A2A2A2A2A209C
S1130CE853746570204D6F72746F72204F6666205E
S1130CF82A2A2A2A2A2A2A2A2A2A2A2A2A2A0A0A88
S1130D0800436473203A2025640A002A2A2A2A2ADE
S1130D182A2A2A2A2A2A43647320506C61792A2AA7
S1110D282A2A2A2A2A2A2A2A2A2A0A0A000001
S9030000FC
