S017000050617373776F72645F53797374656D2E73726563D6
S113000045C0000060C000005EC000005CC000008D
S11300105AC0000058C0000056C0000054C0000080
S113002052C0000050C000004EC000004CC0000090
S11300304AC0000048C0000046C0000044C00000A0
S113004042C0000040C000003EC000003CC00000B0
S11300503AC0000038C0000036C0000034C00000C0
S113006032C0000030C000002EC000002CC00000D0
S11300702AC0000028C0000026C0000024C00000E0
S113008022C0000020C000001EC0000011241FBEBA
S1130090CFEFD0E1DEBFCDBF11E0A0E0B1E0EAE5F3
S11300A0F5E000E00BBF02C007900D92A63BB1073C
S11300B0D9F721E0A6EBB1E001C01D92AB3CB20739
S11300C0E1F7BCD148C29CCFD898D998982F907F9B
S11300D094609BBB2BE72A95F1F7DA98D898D998C6
S11300E020E1829FC001112484608BBB8BE78A9539
S11300F0F1F7DA980895D998982F907F95609BBB73
S11301002BE72A95F1F7DA98D99820E1829FC0016C
S1130110112485608BBB8BE78A95F1F7DA980895F3
S1130120EADF83E397E00197F1F70895CF93DF9334
S1130130EC018881882329F02196F2DF89918111CD
S1130140FCCFDF91CF91089590E4899F600D112435
S1130150862F8068B9CF089581E0B6DF86E69EE0F9
S11301600197F1F70000089582E0AEDF86E69EE095
S11301700197F1F7000088E2A7DF9BE59A95F1F774
S11301808CE0A2DF8BE58A95F1F786E09DDF9BE5A5
S11301909A95F1F7E1CF08958EEF8093620080B1D4
S11301A0807F803E29F480B18E3EE9F381E3089597
S11301B080B1807F803D29F480B18E3DE9F384E3F2
S11301C0089580B1807F803B29F480B18E3BE9F3B0
S11301D087E3089580B1807F803729F480B18E371A
S11301E0E9F38AE208958DEF8093620080B1807F05
S11301F0803E29F480B18D3EE9F382E3089580B115
S1130200807F803D29F480B18D3DE9F385E3089535
S113021080B1807F803B29F480B18D3BE9F388E392
S1130220089580B1807F803729F480B18D37E9F358
S113023080E308958BEF8093620080B1807F803EDD
S113024029F480B18B3EE9F383E3089580B1807F84
S1130250803D29F480B18B3DE9F386E3089580B1B4
S1130260807F803B29F480B18B3BE9F389E30895D7
S113027080B1807F803729F480B18B37E9F383E242
S1130280089588E708950F931F93CF93DF938C010C
S1130290EB0162DF60E080E057DFC80147DF60E028
S11302A081E052DFCE0142DFDF91CF911F910F91A8
S11302B008958091B8019091B901009741F0EBEB5A
S11302C0F1E085549E4F1192E817F907E1F7109277
S11302D0B9011092B80108958091BB01811114C035
S11302E06FE971E080E090E0CEDF2FEF8FE39BE0D9
S11302F0215080409040E1F700C0000060E070E0D1
S113030083E691E0C0CF0895E0E0F1E080E191E080
S11303101192E817F907E1F76BEB71E080E091E0E7
S113032013D1C7DF1092B7011092B60160E070E0FC
S113033083E391E0A8DF2FEF8FE796E1215080401F
S11303409040E1F700C000006FE771E08FE891E0B2
S11303509ACF089580B3863081F480B38630E9F370
S113036081E090E09093B7018093B601A2DF6BEB3C
S113037071E083E691E087CF089580B3853059F426
S113038080B38530E9F382E090E09093B7018093E5
S1130390B6018FCF089580B3833051F480B3833096
S11303A0E9F383E090E09093B7018093B60181CFA5
S11303B0089581E085BB2FEF8FE796E121508040BF
S11303C09040E1F700C0000080E885BB2FEF8FE785
S11303D096E1215080409040E1F700C0000015BA3A
S11303E008956BEB71E080E091E0A5D0892B39F49E
S11303F064E471E084E791E046DFDBDF05C062E599
S113040071E084E791E03FDF54CF08955D9BFECF18
S11304108CB95D9A0895CF93DF93EC01888188238A
S113042029F02196F3DF89918111FCCFDF91CF91DF
S113043008955F9BFECF8CB15F9A08958FEF8ABBBE
S113044081E884BB88EF81BB12BA8EEF82B91BB8F6
S113045088E98AB986E0809395001092900087E03D
S113046089B98093610080EF809362007DDE6FE73D
S113047071E08FE891E007DFC0E1D0E06BDF8091AD
S1130480B6019091B7010297F1F413DF80E191E096
S1130490C2DFCFDF8093BA018D3029F41DDF8FEAEC
S11304A091E0B9DFEBCF2091B8013091B901A901F6
S11304B04F5F5F4F5093B9014093B801F901E55480
S11304C0FE4F8083E6CF68DE8093BA018837B1F2AD
S11304D08A3261F48091B6019091B701009711F4CA
S11304E080DFCCCF019751F6F7DEC8CF833239F4E1
S11304F0E0DE6BEB71E084E791E0C5DEBFCF2091D5
S1130500B8013091B901A9014F5F5F4F5093B90110
S11305104093B801F901E554FE4F80834031510501
S113052020F0D093B901C093B8016BEB71E084E77C
S113053091E0A9DEA3CFFB01DC018D91019080192C
S11305400110D9F3990B0895FB01DC0101900D9280
S10D05500020E1F70895F894FFCFAE
S113055A39383735000000000000000000000000B0
S113056A0D0A506C6561736520656E74657220614D
S113057A206E65772070617373776F7264203A20F6
S113058A0D0A004368616765642050617373776F6D
S113059A726421004F70656E2054686520446F6F41
S11305AA720050617373776F72642046616C73656D
S11305BA2121004368616E67652050617373776F08
S11305CA72643A0050617373776F7264203A004917
S11305DA6E736572742050617373776F726400501E
S11305EA617373776F72642053797374656D0057FE
S11305FA6173206E6F7420656E7465726564006140
S109060A62636465000058
S9030000FC
