S017000050617373776F72645F53797374656D2E73726563D6
S113000045C0000060C000005EC000005CC000008D
S11300105AC0000058C0000056C0000054C0000080
S113002052C0000050C000004EC000004CC0000090
S11300304AC0000048C0000046C0000044C00000A0
S113004042C0000040C000003EC000003CC00000B0
S11300503AC0000038C0000036C0000034C00000C0
S113006032C0000030C000002EC000002CC00000D0
S11300702AC0000028C0000026C0000024C00000E0
S113008022C0000020C000001EC0000011241FBEBA
S1130090CFEFD0E1DEBFCDBF11E0A0E0B1E0E2EDF3
S11300A0F4E000E00BBF02C007900D92AC37B1073B
S11300B0D9F721E0ACE7B1E001C01D92A139B20744
S11300C0E1F774D104C29CCFD898D998982F907F27
S11300D094609BBB2BE72A95F1F7DA98D898D998C6
S11300E020E1829FC001112484608BBB8BE78A9539
S11300F0F1F7DA980895D998982F907F95609BBB73
S11301002BE72A95F1F7DA98D99820E1829FC0016C
S1130110112485608BBB8BE78A95F1F7DA980895F3
S1130120EADF83E397E00197F1F70895CF93DF9334
S1130130EC018881882329F02196F2DF89918111CD
S1130140FCCFDF91CF91089590E4899F600D112435
S1130150862F8068B9CF089581E0B6DF86E69EE0F9
S11301600197F1F70000089582E0AEDF86E69EE095
S11301700197F1F7000088E2A7DF9BE59A95F1F774
S11301808CE0A2DF8BE58A95F1F786E09DDF9BE5A5
S11301909A95F1F7E1CF08958EEF8093620080B1D4
S11301A0807F803E29F480B18E3EE9F381E3089597
S11301B080B1807F803D29F480B18E3DE9F384E3F2
S11301C0089580B1807F803B29F480B18E3BE9F3B0
S11301D087E3089580B1807F803729F480B18E371A
S11301E0E9F38AE208958DEF8093620080B1807F05
S11301F0803E29F480B18D3EE9F382E3089580B115
S1130200807F803D29F480B18D3DE9F385E3089535
S113021080B1807F803B29F480B18D3BE9F388E392
S1130220089580B1807F803729F480B18D37E9F358
S113023080E308958BEF8093620080B1807F803EDD
S113024029F480B18B3EE9F383E3089580B1807F84
S1130250803D29F480B18B3DE9F386E3089580B1B4
S1130260807F803B29F480B18B3BE9F389E30895D7
S113027080B1807F803729F480B18B37E9F383E242
S1130280089588E708950F931F93CF93DF938C010C
S1130290EB0162DF60E080E057DFC80147DF60E028
S11302A081E052DFCE0142DFDF91CF911F910F91A8
S11302B00895E0E0F1E080E191E01192E817F90798
S11302C0E1F761E871E080E091E0FAC0089580917F
S11302D07E0190917F01009741F0E1E8F1E08F57B2
S11302E09E4F1192E817F907E1F710927F011092DF
S11302F07E01089580B3863081F480B38630E9F3BB
S113030081E090E090937D0180937C01E0DF61E8DF
S113031071E080E491E0B7CF089580B3853059F45B
S113032080B38530E9F382E090E090937D0180937F
S11303307C01CDCF089580B3833051F480B38330F2
S1130340E9F383E090E090937D0180937C01BFCF3B
S1130350089581E085BB2FEF8FE796E1215080401F
S11303609040E1F700C0000080E885BB2FEF8FE7E5
S113037096E1215080409040E1F700C0000015BA9A
S1130380089561E871E080E091E091D0892B39F41F
S113039061E271E081E591E076DFDBDF05C06FE2C9
S11303A071E081E591E06FDF92CF08958FEF8ABB12
S11303B087E08093610080EF8093620088EF81BBC7
S11303C012BA81E884BBD0DE6CE571E08CE691E082
S11303D05ADFC0E1D0E08EDF80917C0190917D01F5
S11303E0009719F0019731F1F6CFD6DE80938001A2
S11303F0883789F38A3211F4C4DFEDCF20917E016E
S113040030917F01A9014F5F5F4F50937F0140936B
S11304107E01F901EF57FE4F80834031510520F0F2
S1130420D0937F01C0937E0161E871E081E591E0A2
S11304302ADFD1CFB1DE80938001883761F28A321E
S1130440D1F437DF10927D0110927C0140DF60E02F
S113045070E080E191E017DF2FEF8FE796E1215004
S113046080409040E1F700C000006CE571E08CE64C
S113047091E009DFB0CF20917E0130917F01A90185
S11304804F5F5F4F50937F0140937E01F901EF5717
S1130490FE4F80834031510520F0D0937F01C093FB
S11304A07E0161E871E080E491E0EDDE94CFFB0130
S11304B0DC018D91019080190110D9F3990B0895F5
S11304C0FB01DC0101900D920020E1F70895F894FE
S10504D0FFCF58
S11304D23938373500000000000000000000000039
S11304E24368616765642050617373776F72642136
S11304F2004F70656E2054686520446F6F7200501F
S1130502617373776F72642046616C736521210095
S11305124368616E67652050617373776F72643AE2
S11305220050617373776F7264203A00496E736589
S113053272742050617373776F72640050617373C5
S10F0542776F72642053797374656D0048
S9030000FC
