S00E00004B65795061642E73726563D8
S113000045C000004BC0000049C0000047C00000CC
S113001045C0000043C0000041C000003FC00000D4
S11300203DC000003BC0000039C0000037C00000E4
S113003035C0000033C0000031C000002FC00000F4
S11300402DC000002BC0000029C0000027C0000004
S113005025C0000023C0000021C000001FC0000014
S11300601DC000001BC0000019C0000017C0000024
S113007015C0000013C0000011C000000FC0000034
S11300800DC000000BC0000009C0000011241FBEF9
S1130090CFEFD0E1DEBFCDBF76D0E0C0B1CF8EEFE1
S11300A082BB80B3807F803E29F480B38E3EE9F327
S11300B081E0089580B3807F803D29F480B38E3D34
S11300C0E9F384E0089580B3807F803B29F480B312
S11300D08E3BE9F387E0089580B3807F803729F46D
S11300E080B38E37E9F38AE208958DEF82BB80B343
S11300F0807F803E29F480B38D3EE9F382E0089549
S113010080B3807F803D29F480B38D3DE9F385E0A1
S1130110089580B3807F803B29F480B38D3BE9F35D
S113012088E0089580B3807F803729F480B38D37C9
S1130130E9F380E008958BEF82BB80B3807F803E3B
S113014029F480B38B3EE9F383E0089580B3807F84
S1130150803D29F480B38B3DE9F386E0089580B3B4
S1130160807F803B29F480B38B3BE9F389E00895D9
S113017080B3807F803729F480B38B37E9F383E23F
S1130180089588E70895CF93DF93CDB7DEB7289716
S11301900FB6F894DEBF0FBECDBF8FEF8ABB8BBB0B
S11301A084BB85BB81E0809361008093620097E00B
S11301B091BB90EF92BB898382E08A8383E08B8337
S11301C084E08C8300E010E0CE0105967C010F2EC4
S11301D0F2E6CF2ED12CF02D99249394A12CB12C9E
S11301E001C089015CDF8837E9F38A3229F41D8272
S11301F01E821F821886F6CF98012F5F3F4FE5E0DD
S1130200F0E0EC0FFD1FE00FF11F80832430310577
S113021041F799818D819817C1F0F60190820A2DDA
S11302201B2DE0CFEE16FF06A1F4F6011082FFEFBE
S11302302FEB86E0F15020408040E1F700C0000041
S1130240F60190820A2D1B2DCDCFFE013296DE01E0
S1130250169691918D91981729F3DFCFF894FFCFDB
S9030000FC
