:1000000045C0000060C000005EC000005CC0000091
:100010005AC0000058C0000056C0000054C0000084
:1000200052C0000050C000004EC000004CC0000094
:100030004AC0000048C0000046C0000044C00000A4
:1000400042C0000040C000003EC000003CC00000B4
:100050003AC0000038C0000036C0000034C00000C4
:1000600032C0000030C000002EC000002CC00000D4
:100070002AC0000028C0000026C0000024C00000E4
:1000800022C0000020C000001EC0000011241FBEBE
:10009000CFEFD0E1DEBFCDBF11E0A0E0B1E0E6E8F8
:1000A000F3E000E00BBF02C007900D92A634B10749
:1000B000D9F721E0A6E4B1E001C01D92A735B2074F
:1000C000E1F710D15EC19CCFD898D998982F907F36
:1000D00094609BBB2BE72A95F1F7DA98D898D998CA
:1000E00020E1829FC001112484608BBB8BE78A953D
:1000F000F1F7DA980895D998982F907F95609BBB77
:100100002BE72A95F1F7DA98D99820E1829FC00170
:10011000112485608BBB8BE78A95F1F7DA980895F7
:10012000EADF83E397E00197F1F70895CF93DF9338
:10013000EC018881882329F02196F2DF89918111D1
:10014000FCCFDF91CF91089590E4899F600D112439
:10015000862F8068B9CF089581E0B6DF86E69EE0FD
:100160000197F1F70000089582E0AEDF86E69EE099
:100170000197F1F7000088E2A7DF9BE59A95F1F778
:100180008CE0A2DF8BE58A95F1F786E09DDF9BE5A9
:100190009A95F1F7E1CF08958EEF8093620080B1D8
:1001A000807F803E29F480B18E3EE9F381E308959B
:1001B00080B1807F803D29F480B18E3DE9F384E3F6
:1001C000089580B1807F803B29F480B18E3BE9F3B4
:1001D00087E3089580B1807F803729F480B18E371E
:1001E000E9F38AE208958DEF8093620080B1807F09
:1001F000803E29F480B18D3EE9F382E3089580B119
:10020000807F803D29F480B18D3DE9F385E3089539
:1002100080B1807F803B29F480B18D3BE9F388E396
:10022000089580B1807F803729F480B18D37E9F35C
:1002300080E308958BEF8093620080B1807F803EE1
:1002400029F480B18B3EE9F383E3089580B1807F88
:10025000803D29F480B18B3DE9F386E3089580B1B8
:10026000807F803B29F480B18B3BE9F389E30895DB
:1002700080B1807F803729F480B18B37E9F383E246
:10028000089588E7089568DF60E080E05DDF84E23C
:1002900091E04CDF6AE471E08FE191E069D0892B55
:1002A00039F460E081E050DF80E091E03FDF06C09C
:1002B00060E081E049DF8EE091E038DF8091460127
:1002C000909147011816190644F4EAE4F1E0865BC0
:1002D0009E4F1192E817F907E1F71092470110922B
:1002E000460108958FEF8ABB87E08093610080EF1D
:1002F0008093620039DF60E080E026DF83E391E0F5
:1003000015DF60E081E020DF88E491E00FDFC0E1ED
:10031000D0E042DF809349018837D9F38A3211F463
:10032000B2DFF7CF19DF60E080E00EDF84E291E01A
:10033000FDDE60E081E008DF809146019091470199
:100340009C012F5F3F4F3093470120934601FC01F2
:10035000E65BFE4F4091490140832031310524F096
:10036000D0934701C09346018AE491E0DFDED1CF0C
:10037000FB01DC018D91019080190110D9F3990BDB
:060380000895F894FFCF80
:100386004F70656E2054686520446F6F720050612F
:100396007373776F72642046616C7365212100392F
:1003A600383735004B657920506164204E756D6293
:1003B60065720050617373776F726420496E73655E
:0603C60072742121000009
:00000001FF
