S017000050617373776F72645F53797374656D2E73726563D6
S113000045C0000060C000005EC000005CC000008D
S11300105AC0000058C0000056C0000054C0000080
S113002052C0000050C000004EC000004CC0000090
S11300304AC0000048C0000046C0000044C00000A0
S113004042C0000040C000003EC000003CC00000B0
S11300503AC0000038C0000036C0000034C00000C0
S113006032C0000030C000002EC000002CC00000D0
S11300702AC0000028C0000026C0000024C00000E0
S113008022C0000020C000001EC0000011241FBEBA
S1130090CFEFD0E1DEBFCDBF11E0A0E0B1E0E2E4FC
S11300A0F4E000E00BBF02C007900D92AC36B1073C
S11300B0D9F721E0ACE6B1E001C01D92A138B20746
S11300C0E1F74DD1BCC19CCFD898D998982F907F97
S11300D094609BBB2BE72A95F1F7DA98D898D998C6
S11300E020E1829FC001112484608BBB8BE78A9539
S11300F0F1F7DA980895D998982F907F95609BBB73
S11301002BE72A95F1F7DA98D99820E1829FC0016C
S1130110112485608BBB8BE78A95F1F7DA980895F3
S1130120EADF83E397E00197F1F70895CF93DF9334
S1130130EC018881882329F02196F2DF89918111CD
S1130140FCCFDF91CF91089590E4899F600D112435
S1130150862F8068B9CF089581E0B6DF86E69EE0F9
S11301600197F1F70000089582E0AEDF86E69EE095
S11301700197F1F7000088E2A7DF9BE59A95F1F774
S11301808CE0A2DF8BE58A95F1F786E09DDF9BE5A5
S11301909A95F1F7E1CF08958EEF8093620080B1D4
S11301A0807F803E29F480B18E3EE9F381E3089597
S11301B080B1807F803D29F480B18E3DE9F384E3F2
S11301C0089580B1807F803B29F480B18E3BE9F3B0
S11301D087E3089580B1807F803729F480B18E371A
S11301E0E9F38AE208958DEF8093620080B1807F05
S11301F0803E29F480B18D3EE9F382E3089580B115
S1130200807F803D29F480B18D3DE9F385E3089535
S113021080B1807F803B29F480B18D3BE9F388E392
S1130220089580B1807F803729F480B18D37E9F358
S113023080E308958BEF8093620080B1807F803EDD
S113024029F480B18B3EE9F383E3089580B1807F84
S1130250803D29F480B18B3DE9F386E3089580B1B4
S1130260807F803B29F480B18B3BE9F389E30895D7
S113027080B1807F803729F480B18B37E9F383E242
S1130280089588E708950F931F93CF93DF938C010C
S1130290EB0162DF60E080E057DFC80147DF60E028
S11302A081E052DFCE0142DFDF91CF911F910F91A8
S11302B0089580916E0190916F01009741F0E1E7FC
S11302C0F1E08F589E4F1192E817F907E1F7109269
S11302D06F0110926E01089561E771E080E091E092
S11302E0A5D0892B31F460E171E080E491E0CBDFAB
S11302F005C06EE171E080E491E0C5DFDACF0895D6
S113030080B3863081F480B38630E9F381E090E0F5
S113031090936D0180936C01CCDF61E771E08FE213
S113032091E0B1CF089580B3853059F480B385301E
S1130330E9F382E090E090936D0180936C01B9CF72
S1130340089580B3833051F480B38330E9F383E0BC
S113035090E090936D0180936C01ABCF08958FEF83
S11303608ABB87E08093610080EF8093620088EF0E
S113037081BB12BAF9DE6BE471E08BE591E083DFB7
S1130380C0E1D0E0BDDF80916C0190916D010097D8
S113039019F0019731F1F6CFFFDE809370018837B1
S11303A089F38A3211F498DFEDCF20916E013091F8
S11303B06F01A9014F5F5F4F50936F0140936E012E
S11303C0F901EF58FE4F80834031510520F0D0935E
S11303D06F01C0936E0161E771E080E491E053DF47
S11303E0D1CFDADE80937001883761F28A3211F45A
S11303F073DFC8CF20916E0130916F01A9014F5F67
S11304005F4F50936F0140936E01F901EF58FE4F17
S113041080834031510520F0D0936F01C0936E0169
S113042061E771E08FE291E02EDFACCFFB01DC01EC
S11304308D91019080190110D9F3990B0895F894C6
S1050440FFCFE8
S113044239383735000000000000000000000000C9
S11304524F70656E2054686520446F6F720050615E
S11304627373776F72642046616C73652121004354
S113047268616E67652050617373776F72643A00C6
S113048250617373776F7264203A00496E736572B8
S1130492742050617373776F726400506173737761
S10F04A26F72642053797374656D000060
S9030000FC
