S0100000506F7274546573742E73726563CF
S113000045C0000060C000005EC000005CC000008D
S11300105AC0000058C0000056C0000054C0000080
S113002052C0000050C000004EC000004CC0000090
S11300304AC0000048C0000046C0000044C00000A0
S113004042C0000040C000003EC000003CC00000B0
S11300503AC0000038C0000036C0000034C00000C0
S113006032C000006BC000002EC000002CC0000095
S11300702AC0000028C0000026C0000024C00000E0
S113008022C0000020C000001EC0000011241FBEBA
S1130090CFEFD0E1DEBFCDBF11E0A0E0B1E0E4EEF0
S11300A0F1E000E00BBF02C007900D92AA30B10747
S11300B0D9F721E0AAE0B1E001C01D92AD30B2074A
S11300C0E1F702D08DC09CCF8FEF8ABB12B880932A
S11300D0610010928B0085E480938A0080E2809313
S11300E07D0080917C00806280937C007894809174
S11300F000018BBB20E23CE14FE080910B0188239F
S113010081F080910C01803110F040930C01E0915A
S11301100C01F0E0E050FF4F80818BBB10920B018B
S1130120ECCF8091800090918100B90145D0FB0112
S1130130E050FF4F808180936200DFCF1F920F92C7
S11301400FB60F9211245F936F937F938F939F93B6
S1130150AF93BF93F89480910A0181110FC085E099
S113016080938A0010928900109288001092810076
S11301701092800081E080930A0111C085E480938D
S11301808A00809180009091810060E27CE114D02B
S113019060930C0181E080930B0110920A01789422
S11301A0BF91AF919F918F917F916F915F910F90CC
S11301B00FBE0F901F901895AA1BBB1B51E107C0DF
S11301C0AA1FBB1FA617B70710F0A61BB70B881FE3
S11301D0991F5A95A9F780959095BC01CD01089572
S10701E0F894FFCFBD
S10D01E43F065B4F666D7C077F6FDA
S9030000FC
